{"contracts/CardGame.sol":{"TradingCardGame":{"abi":[{"inputs":[{"internalType":"address","name":"_cardContractAddress","type":"address"},{"internalType":"address","name":"_computerAddress","type":"address"}],"stateMutability":"nonpayable","type":"constructor"},{"inputs":[{"internalType":"address","name":"owner","type":"address"}],"name":"OwnableInvalidOwner","type":"error"},{"inputs":[{"internalType":"address","name":"account","type":"address"}],"name":"OwnableUnauthorizedAccount","type":"error"},{"anonymous":false,"inputs":[{"indexed":true,"internalType":"uint256","name":"battleId","type":"uint256"},{"indexed":true,"internalType":"address","name":"winner","type":"address"},{"indexed":true,"internalType":"address","name":"loser","type":"address"}],"name":"BattleFinished","type":"event"},{"anonymous":false,"inputs":[{"indexed":true,"internalType":"uint256","name":"battleId","type":"uint256"},{"indexed":true,"internalType":"address","name":"player","type":"address"},{"indexed":false,"internalType":"uint256","name":"playerCardId","type":"uint256"},{"indexed":false,"internalType":"uint256","name":"computerCardId","type":"uint256"}],"name":"BattleStarted","type":"event"},{"anonymous":false,"inputs":[{"indexed":true,"internalType":"address","name":"player","type":"address"},{"indexed":false,"internalType":"string","name":"name","type":"string"}],"name":"NewPlayer","type":"event"},{"anonymous":false,"inputs":[{"indexed":true,"internalType":"address","name":"previousOwner","type":"address"},{"indexed":true,"internalType":"address","name":"newOwner","type":"address"}],"name":"OwnershipTransferred","type":"event"},{"inputs":[{"internalType":"uint256","name":"","type":"uint256"}],"name":"battles","outputs":[{"internalType":"enum TradingCardGame.BattleStatus","name":"battleStatus","type":"uint8"},{"internalType":"uint256","name":"battleId","type":"uint256"},{"internalType":"address","name":"player","type":"address"},{"internalType":"uint256","name":"playerCardId","type":"uint256"},{"internalType":"uint256","name":"computerCardId","type":"uint256"},{"internalType":"uint256","name":"playerStatValue","type":"uint256"},{"internalType":"uint256","name":"computerStatValue","type":"uint256"},{"internalType":"address","name":"winner","type":"address"}],"stateMutability":"view","type":"function"},{"inputs":[],"name":"cardContract","outputs":[{"internalType":"contract IERC721","name":"","type":"address"}],"stateMutability":"view","type":"function"},{"inputs":[],"name":"computerAddress","outputs":[{"internalType":"address","name":"","type":"address"}],"stateMutability":"view","type":"function"},{"inputs":[{"internalType":"uint256","name":"_battleId","type":"uint256"},{"internalType":"uint256","name":"_playerCardId","type":"uint256"},{"internalType":"uint256","name":"_computerCardId","type":"uint256"},{"internalType":"uint256","name":"_playerStatValue","type":"uint256"},{"internalType":"uint256","name":"_computerStatValue","type":"uint256"}],"name":"createBattle","outputs":[],"stateMutability":"nonpayable","type":"function"},{"inputs":[],"name":"owner","outputs":[{"internalType":"address","name":"","type":"address"}],"stateMutability":"view","type":"function"},{"inputs":[{"internalType":"address","name":"","type":"address"}],"name":"players","outputs":[{"internalType":"address","name":"playerAddress","type":"address"},{"internalType":"string","name":"playerName","type":"string"},{"internalType":"uint256","name":"wins","type":"uint256"},{"internalType":"uint256","name":"losses","type":"uint256"}],"stateMutability":"view","type":"function"},{"inputs":[{"internalType":"string","name":"_name","type":"string"}],"name":"registerPlayer","outputs":[],"stateMutability":"nonpayable","type":"function"},{"inputs":[],"name":"renounceOwnership","outputs":[],"stateMutability":"nonpayable","type":"function"},{"inputs":[{"internalType":"uint256","name":"_battleId","type":"uint256"}],"name":"resolveBattle","outputs":[],"stateMutability":"nonpayable","type":"function"},{"inputs":[{"internalType":"address","name":"newOwner","type":"address"}],"name":"transferOwnership","outputs":[],"stateMutability":"nonpayable","type":"function"},{"inputs":[{"internalType":"address","name":"_newAddress","type":"address"}],"name":"updateComputerAddress","outputs":[],"stateMutability":"nonpayable","type":"function"}],"evm":{"bytecode":{"linkReferences":{},"object":"608060405234801561001057600080fd5b50604051610f02380380610f0283398101604081905261002f916100fc565b338061005557604051631e4fbdf760e01b81526000600482015260240160405180910390fd5b61005e81610090565b50600180546001600160a01b039384166001600160a01b0319918216179091556002805492909316911617905561012f565b600080546001600160a01b038381166001600160a01b0319831681178455604051919092169283917f8be0079c531659141344cd1fd0a4f28419497f9722a3daafe3b4186f6b6457e09190a35050565b80516001600160a01b03811681146100f757600080fd5b919050565b6000806040838503121561010f57600080fd5b610118836100e0565b9150610126602084016100e0565b90509250929050565b610dc48061013e6000396000f3fe608060405234801561001057600080fd5b50600436106100c95760003560e01c8063715018a611610081578063d93705a51161005b578063d93705a5146101db578063e2eb41ff146101ee578063f2fde38b1461021157600080fd5b8063715018a6146101af5780638da5cb5b146101b7578063b3446f85146101c857600080fd5b8063606d2e96116100b2578063606d2e9614610113578063693bd2d0146101895780637016f9311461019c57600080fd5b8063255c9e6f146100ce5780633a7c2b71146100e3575b600080fd5b6100e16100dc3660046109a5565b610224565b005b6002546100f6906001600160a01b031681565b6040516001600160a01b0390911681526020015b60405180910390f35b6101756101213660046109e0565b60046020819052600091825260409091208054600182015460028301546003840154948401546005850154600686015460079096015460ff9095169693956001600160a01b03938416959293919290911688565b60405161010a989796959493929190610a0f565b6001546100f6906001600160a01b031681565b6100e16101aa366004610a86565b61048e565b6100e16104b8565b6000546001600160a01b03166100f6565b6100e16101d6366004610ac0565b6104cc565b6100e16101e93660046109e0565b6105eb565b6102016101fc366004610a86565b6107fd565b60405161010a9493929190610bb7565b6100e161021f366004610a86565b6108b8565b6001546040517f6352211e0000000000000000000000000000000000000000000000000000000081526004810186905233916001600160a01b031690636352211e90602401602060405180830381865afa158015610286573d6000803e3d6000fd5b505050506040513d601f19601f820116820180604052508101906102aa9190610bec565b6001600160a01b0316146103055760405162461bcd60e51b815260206004820152601760248201527f596f7520646f6e2774206f776e2074686973206361726400000000000000000060448201526064015b60405180910390fd5b600085815260046020526040902060010154156103645760405162461bcd60e51b815260206004820152601860248201527f426174746c6520494420616c726561647920657869737473000000000000000060448201526064016102fc565b6040805161010081019091528060018152602080820188905233604080840191909152606083018890526080830187905260a0830186905260c08301859052600060e09093018390528883526004909152902081518154829060ff191660018360028111156103d5576103d56109f9565b021790555060208281015160018301556040808401516002840180546001600160a01b03199081166001600160a01b0393841617909155606086015160038601556080860151600486015560a0860151600586015560c0860151600686015560e090950151600790940180549095169316929092179092558051868152918201859052339187917f7b010b92649cab9c2407084cd3618bec17673efa5ac581cd215068a8558580dc910160405180910390a35050505050565b61049661090f565b600280546001600160a01b0319166001600160a01b0392909216919091179055565b6104c061090f565b6104ca6000610955565b565b33600090815260036020526040902060010180546104e990610c09565b1590506105385760405162461bcd60e51b815260206004820152601260248201527f416c72656164792072656769737465726564000000000000000000000000000060448201526064016102fc565b604080516080810182523380825260208083018581526000848601819052606085018190529283526003909152929020815181546001600160a01b0319166001600160a01b03909116178155915190919060018201906105989082610c94565b5060408281015160028301556060909201516003909101555133907f81ef79d1cda814a60c0fc60792e648a06d9c6bae67176346d1cc8b63030bfccd906105e0908490610d54565b60405180910390a250565b60008181526004602052604090206001815460ff166002811115610611576106116109f9565b1461065e5760405162461bcd60e51b815260206004820152601660248201527f426174746c65206e6f7420696e2070726f67726573730000000000000000000060448201526064016102fc565b60028101546001600160a01b031633148061068357506000546001600160a01b031633145b6106cf5760405162461bcd60e51b815260206004820152601960248201527f4e6f7420617574686f72697a656420746f207265736f6c76650000000000000060448201526064016102fc565b8060060154816005015410156106f0576002546001600160a01b03166106ff565b60028101546001600160a01b03165b6007820180546001600160a01b039283166001600160a01b03199091168117909155825460ff191660029081178455830154909116600081815260036020526040902091036107645760028101805490600061075a83610d67565b919050555061077c565b60038101805490600061077683610d67565b91905055505b600282015460078301546001600160a01b039081169116146107ab5760028201546001600160a01b03166107b8565b6002546001600160a01b03165b60078301546040516001600160a01b03928316929091169085907fc77dc6cd4b51c8efc4af40a582ca4cf229fda505a830b4486b200ddcbdb1383f90600090a4505050565b600360205260009081526040902080546001820180546001600160a01b03909216929161082990610c09565b80601f016020809104026020016040519081016040528092919081815260200182805461085590610c09565b80156108a25780601f10610877576101008083540402835291602001916108a2565b820191906000526020600020905b81548152906001019060200180831161088557829003601f168201915b5050505050908060020154908060030154905084565b6108c061090f565b6001600160a01b038116610903576040517f1e4fbdf7000000000000000000000000000000000000000000000000000000008152600060048201526024016102fc565b61090c81610955565b50565b6000546001600160a01b031633146104ca576040517f118cdaa70000000000000000000000000000000000000000000000000000000081523360048201526024016102fc565b600080546001600160a01b038381166001600160a01b0319831681178455604051919092169283917f8be0079c531659141344cd1fd0a4f28419497f9722a3daafe3b4186f6b6457e09190a35050565b600080600080600060a086880312156109bd57600080fd5b505083359560208501359550604085013594606081013594506080013592509050565b6000602082840312156109f257600080fd5b5035919050565b634e487b7160e01b600052602160045260246000fd5b610100810160038a10610a3257634e487b7160e01b600052602160045260246000fd5b98815260208101979097526001600160a01b0395861660408801526060870194909452608086019290925260a085015260c08401521660e09091015290565b6001600160a01b038116811461090c57600080fd5b600060208284031215610a9857600080fd5b8135610aa381610a71565b9392505050565b634e487b7160e01b600052604160045260246000fd5b600060208284031215610ad257600080fd5b813567ffffffffffffffff80821115610aea57600080fd5b818401915084601f830112610afe57600080fd5b813581811115610b1057610b10610aaa565b604051601f8201601f19908116603f01168101908382118183101715610b3857610b38610aaa565b81604052828152876020848701011115610b5157600080fd5b826020860160208301376000928101602001929092525095945050505050565b6000815180845260005b81811015610b9757602081850181015186830182015201610b7b565b506000602082860101526020601f19601f83011685010191505092915050565b6001600160a01b0385168152608060208201526000610bd96080830186610b71565b6040830194909452506060015292915050565b600060208284031215610bfe57600080fd5b8151610aa381610a71565b600181811c90821680610c1d57607f821691505b602082108103610c3d57634e487b7160e01b600052602260045260246000fd5b50919050565b601f821115610c8f576000816000526020600020601f850160051c81016020861015610c6c5750805b601f850160051c820191505b81811015610c8b57828155600101610c78565b5050505b505050565b815167ffffffffffffffff811115610cae57610cae610aaa565b610cc281610cbc8454610c09565b84610c43565b602080601f831160018114610cf75760008415610cdf5750858301515b600019600386901b1c1916600185901b178555610c8b565b600085815260208120601f198616915b82811015610d2657888601518255948401946001909101908401610d07565b5085821015610d445787850151600019600388901b60f8161c191681555b5050505050600190811b01905550565b602081526000610aa36020830184610b71565b600060018201610d8757634e487b7160e01b600052601160045260246000fd5b506001019056fea2646970667358221220bacf57ba16eab5efc50e6967589a7af64ea1c3f384add7087ed6bd174d089c5564736f6c63430008180033","opcodes":"PUSH1 0x80 PUSH1 0x40 MSTORE CALLVALUE DUP1 ISZERO PUSH2 0x10 JUMPI PUSH1 0x0 DUP1 REVERT JUMPDEST POP PUSH1 0x40 MLOAD PUSH2 0xF02 CODESIZE SUB DUP1 PUSH2 0xF02 DUP4 CODECOPY DUP2 ADD PUSH1 0x40 DUP2 SWAP1 MSTORE PUSH2 0x2F SWAP2 PUSH2 0xFC JUMP JUMPDEST CALLER DUP1 PUSH2 0x55 JUMPI PUSH1 0x40 MLOAD PUSH4 0x1E4FBDF7 PUSH1 0xE0 SHL DUP2 MSTORE PUSH1 0x0 PUSH1 0x4 DUP3 ADD MSTORE PUSH1 0x24 ADD PUSH1 0x40 MLOAD DUP1 SWAP2 SUB SWAP1 REVERT JUMPDEST PUSH2 0x5E DUP2 PUSH2 0x90 JUMP JUMPDEST POP PUSH1 0x1 DUP1 SLOAD PUSH1 0x1 PUSH1 0x1 PUSH1 0xA0 SHL SUB SWAP4 DUP5 AND PUSH1 0x1 PUSH1 0x1 PUSH1 0xA0 SHL SUB NOT SWAP2 DUP3 AND OR SWAP1 SWAP2 SSTORE PUSH1 0x2 DUP1 SLOAD SWAP3 SWAP1 SWAP4 AND SWAP2 AND OR SWAP1 SSTORE PUSH2 0x12F JUMP JUMPDEST PUSH1 0x0 DUP1 SLOAD PUSH1 0x1 PUSH1 0x1 PUSH1 0xA0 SHL SUB DUP4 DUP2 AND PUSH1 0x1 PUSH1 0x1 PUSH1 0xA0 SHL SUB NOT DUP4 AND DUP2 OR DUP5 SSTORE PUSH1 0x40 MLOAD SWAP2 SWAP1 SWAP3 AND SWAP3 DUP4 SWAP2 PUSH32 0x8BE0079C531659141344CD1FD0A4F28419497F9722A3DAAFE3B4186F6B6457E0 SWAP2 SWAP1 LOG3 POP POP JUMP JUMPDEST DUP1 MLOAD PUSH1 0x1 PUSH1 0x1 PUSH1 0xA0 SHL SUB DUP2 AND DUP2 EQ PUSH2 0xF7 JUMPI PUSH1 0x0 DUP1 REVERT JUMPDEST SWAP2 SWAP1 POP JUMP JUMPDEST PUSH1 0x0 DUP1 PUSH1 0x40 DUP4 DUP6 SUB SLT ISZERO PUSH2 0x10F JUMPI PUSH1 0x0 DUP1 REVERT JUMPDEST PUSH2 0x118 DUP4 PUSH2 0xE0 JUMP JUMPDEST SWAP2 POP PUSH2 0x126 PUSH1 0x20 DUP5 ADD PUSH2 0xE0 JUMP JUMPDEST SWAP1 POP SWAP3 POP SWAP3 SWAP1 POP JUMP JUMPDEST PUSH2 0xDC4 DUP1 PUSH2 0x13E PUSH1 0x0 CODECOPY PUSH1 0x0 RETURN INVALID PUSH1 0x80 PUSH1 0x40 MSTORE CALLVALUE DUP1 ISZERO PUSH2 0x10 JUMPI PUSH1 0x0 DUP1 REVERT JUMPDEST POP PUSH1 0x4 CALLDATASIZE LT PUSH2 0xC9 JUMPI PUSH1 0x0 CALLDATALOAD PUSH1 0xE0 SHR DUP1 PUSH4 0x715018A6 GT PUSH2 0x81 JUMPI DUP1 PUSH4 0xD93705A5 GT PUSH2 0x5B JUMPI DUP1 PUSH4 0xD93705A5 EQ PUSH2 0x1DB JUMPI DUP1 PUSH4 0xE2EB41FF EQ PUSH2 0x1EE JUMPI DUP1 PUSH4 0xF2FDE38B EQ PUSH2 0x211 JUMPI PUSH1 0x0 DUP1 REVERT JUMPDEST DUP1 PUSH4 0x715018A6 EQ PUSH2 0x1AF JUMPI DUP1 PUSH4 0x8DA5CB5B EQ PUSH2 0x1B7 JUMPI DUP1 PUSH4 0xB3446F85 EQ PUSH2 0x1C8 JUMPI PUSH1 0x0 DUP1 REVERT JUMPDEST DUP1 PUSH4 0x606D2E96 GT PUSH2 0xB2 JUMPI DUP1 PUSH4 0x606D2E96 EQ PUSH2 0x113 JUMPI DUP1 PUSH4 0x693BD2D0 EQ PUSH2 0x189 JUMPI DUP1 PUSH4 0x7016F931 EQ PUSH2 0x19C JUMPI PUSH1 0x0 DUP1 REVERT JUMPDEST DUP1 PUSH4 0x255C9E6F EQ PUSH2 0xCE JUMPI DUP1 PUSH4 0x3A7C2B71 EQ PUSH2 0xE3 JUMPI JUMPDEST PUSH1 0x0 DUP1 REVERT JUMPDEST PUSH2 0xE1 PUSH2 0xDC CALLDATASIZE PUSH1 0x4 PUSH2 0x9A5 JUMP JUMPDEST PUSH2 0x224 JUMP JUMPDEST STOP JUMPDEST PUSH1 0x2 SLOAD PUSH2 0xF6 SWAP1 PUSH1 0x1 PUSH1 0x1 PUSH1 0xA0 SHL SUB AND DUP2 JUMP JUMPDEST PUSH1 0x40 MLOAD PUSH1 0x1 PUSH1 0x1 PUSH1 0xA0 SHL SUB SWAP1 SWAP2 AND DUP2 MSTORE PUSH1 0x20 ADD JUMPDEST PUSH1 0x40 MLOAD DUP1 SWAP2 SUB SWAP1 RETURN JUMPDEST PUSH2 0x175 PUSH2 0x121 CALLDATASIZE PUSH1 0x4 PUSH2 0x9E0 JUMP JUMPDEST PUSH1 0x4 PUSH1 0x20 DUP2 SWAP1 MSTORE PUSH1 0x0 SWAP2 DUP3 MSTORE PUSH1 0x40 SWAP1 SWAP2 KECCAK256 DUP1 SLOAD PUSH1 0x1 DUP3 ADD SLOAD PUSH1 0x2 DUP4 ADD SLOAD PUSH1 0x3 DUP5 ADD SLOAD SWAP5 DUP5 ADD SLOAD PUSH1 0x5 DUP6 ADD SLOAD PUSH1 0x6 DUP7 ADD SLOAD PUSH1 0x7 SWAP1 SWAP7 ADD SLOAD PUSH1 0xFF SWAP1 SWAP6 AND SWAP7 SWAP4 SWAP6 PUSH1 0x1 PUSH1 0x1 PUSH1 0xA0 SHL SUB SWAP4 DUP5 AND SWAP6 SWAP3 SWAP4 SWAP2 SWAP3 SWAP1 SWAP2 AND DUP9 JUMP JUMPDEST PUSH1 0x40 MLOAD PUSH2 0x10A SWAP9 SWAP8 SWAP7 SWAP6 SWAP5 SWAP4 SWAP3 SWAP2 SWAP1 PUSH2 0xA0F JUMP JUMPDEST PUSH1 0x1 SLOAD PUSH2 0xF6 SWAP1 PUSH1 0x1 PUSH1 0x1 PUSH1 0xA0 SHL SUB AND DUP2 JUMP JUMPDEST PUSH2 0xE1 PUSH2 0x1AA CALLDATASIZE PUSH1 0x4 PUSH2 0xA86 JUMP JUMPDEST PUSH2 0x48E JUMP JUMPDEST PUSH2 0xE1 PUSH2 0x4B8 JUMP JUMPDEST PUSH1 0x0 SLOAD PUSH1 0x1 PUSH1 0x1 PUSH1 0xA0 SHL SUB AND PUSH2 0xF6 JUMP JUMPDEST PUSH2 0xE1 PUSH2 0x1D6 CALLDATASIZE PUSH1 0x4 PUSH2 0xAC0 JUMP JUMPDEST PUSH2 0x4CC JUMP JUMPDEST PUSH2 0xE1 PUSH2 0x1E9 CALLDATASIZE PUSH1 0x4 PUSH2 0x9E0 JUMP JUMPDEST PUSH2 0x5EB JUMP JUMPDEST PUSH2 0x201 PUSH2 0x1FC CALLDATASIZE PUSH1 0x4 PUSH2 0xA86 JUMP JUMPDEST PUSH2 0x7FD JUMP JUMPDEST PUSH1 0x40 MLOAD PUSH2 0x10A SWAP5 SWAP4 SWAP3 SWAP2 SWAP1 PUSH2 0xBB7 JUMP JUMPDEST PUSH2 0xE1 PUSH2 0x21F CALLDATASIZE PUSH1 0x4 PUSH2 0xA86 JUMP JUMPDEST PUSH2 0x8B8 JUMP JUMPDEST PUSH1 0x1 SLOAD PUSH1 0x40 MLOAD PUSH32 0x6352211E00000000000000000000000000000000000000000000000000000000 DUP2 MSTORE PUSH1 0x4 DUP2 ADD DUP7 SWAP1 MSTORE CALLER SWAP2 PUSH1 0x1 PUSH1 0x1 PUSH1 0xA0 SHL SUB AND SWAP1 PUSH4 0x6352211E SWAP1 PUSH1 0x24 ADD PUSH1 0x20 PUSH1 0x40 MLOAD DUP1 DUP4 SUB DUP2 DUP7 GAS STATICCALL ISZERO DUP1 ISZERO PUSH2 0x286 JUMPI RETURNDATASIZE PUSH1 0x0 DUP1 RETURNDATACOPY RETURNDATASIZE PUSH1 0x0 REVERT JUMPDEST POP POP POP POP PUSH1 0x40 MLOAD RETURNDATASIZE PUSH1 0x1F NOT PUSH1 0x1F DUP3 ADD AND DUP3 ADD DUP1 PUSH1 0x40 MSTORE POP DUP2 ADD SWAP1 PUSH2 0x2AA SWAP2 SWAP1 PUSH2 0xBEC JUMP JUMPDEST PUSH1 0x1 PUSH1 0x1 PUSH1 0xA0 SHL SUB AND EQ PUSH2 0x305 JUMPI PUSH1 0x40 MLOAD PUSH3 0x461BCD PUSH1 0xE5 SHL DUP2 MSTORE PUSH1 0x20 PUSH1 0x4 DUP3 ADD MSTORE PUSH1 0x17 PUSH1 0x24 DUP3 ADD MSTORE PUSH32 0x596F7520646F6E2774206F776E20746869732063617264000000000000000000 PUSH1 0x44 DUP3 ADD MSTORE PUSH1 0x64 ADD JUMPDEST PUSH1 0x40 MLOAD DUP1 SWAP2 SUB SWAP1 REVERT JUMPDEST PUSH1 0x0 DUP6 DUP2 MSTORE PUSH1 0x4 PUSH1 0x20 MSTORE PUSH1 0x40 SWAP1 KECCAK256 PUSH1 0x1 ADD SLOAD ISZERO PUSH2 0x364 JUMPI PUSH1 0x40 MLOAD PUSH3 0x461BCD PUSH1 0xE5 SHL DUP2 MSTORE PUSH1 0x20 PUSH1 0x4 DUP3 ADD MSTORE PUSH1 0x18 PUSH1 0x24 DUP3 ADD MSTORE PUSH32 0x426174746C6520494420616C7265616479206578697374730000000000000000 PUSH1 0x44 DUP3 ADD MSTORE PUSH1 0x64 ADD PUSH2 0x2FC JUMP JUMPDEST PUSH1 0x40 DUP1 MLOAD PUSH2 0x100 DUP2 ADD SWAP1 SWAP2 MSTORE DUP1 PUSH1 0x1 DUP2 MSTORE PUSH1 0x20 DUP1 DUP3 ADD DUP9 SWAP1 MSTORE CALLER PUSH1 0x40 DUP1 DUP5 ADD SWAP2 SWAP1 SWAP2 MSTORE PUSH1 0x60 DUP4 ADD DUP9 SWAP1 MSTORE PUSH1 0x80 DUP4 ADD DUP8 SWAP1 MSTORE PUSH1 0xA0 DUP4 ADD DUP7 SWAP1 MSTORE PUSH1 0xC0 DUP4 ADD DUP6 SWAP1 MSTORE PUSH1 0x0 PUSH1 0xE0 SWAP1 SWAP4 ADD DUP4 SWAP1 MSTORE DUP9 DUP4 MSTORE PUSH1 0x4 SWAP1 SWAP2 MSTORE SWAP1 KECCAK256 DUP2 MLOAD DUP2 SLOAD DUP3 SWAP1 PUSH1 0xFF NOT AND PUSH1 0x1 DUP4 PUSH1 0x2 DUP2 GT ISZERO PUSH2 0x3D5 JUMPI PUSH2 0x3D5 PUSH2 0x9F9 JUMP JUMPDEST MUL OR SWAP1 SSTORE POP PUSH1 0x20 DUP3 DUP2 ADD MLOAD PUSH1 0x1 DUP4 ADD SSTORE PUSH1 0x40 DUP1 DUP5 ADD MLOAD PUSH1 0x2 DUP5 ADD DUP1 SLOAD PUSH1 0x1 PUSH1 0x1 PUSH1 0xA0 SHL SUB NOT SWAP1 DUP2 AND PUSH1 0x1 PUSH1 0x1 PUSH1 0xA0 SHL SUB SWAP4 DUP5 AND OR SWAP1 SWAP2 SSTORE PUSH1 0x60 DUP7 ADD MLOAD PUSH1 0x3 DUP7 ADD SSTORE PUSH1 0x80 DUP7 ADD MLOAD PUSH1 0x4 DUP7 ADD SSTORE PUSH1 0xA0 DUP7 ADD MLOAD PUSH1 0x5 DUP7 ADD SSTORE PUSH1 0xC0 DUP7 ADD MLOAD PUSH1 0x6 DUP7 ADD SSTORE PUSH1 0xE0 SWAP1 SWAP6 ADD MLOAD PUSH1 0x7 SWAP1 SWAP5 ADD DUP1 SLOAD SWAP1 SWAP6 AND SWAP4 AND SWAP3 SWAP1 SWAP3 OR SWAP1 SWAP3 SSTORE DUP1 MLOAD DUP7 DUP2 MSTORE SWAP2 DUP3 ADD DUP6 SWAP1 MSTORE CALLER SWAP2 DUP8 SWAP2 PUSH32 0x7B010B92649CAB9C2407084CD3618BEC17673EFA5AC581CD215068A8558580DC SWAP2 ADD PUSH1 0x40 MLOAD DUP1 SWAP2 SUB SWAP1 LOG3 POP POP POP POP POP JUMP JUMPDEST PUSH2 0x496 PUSH2 0x90F JUMP JUMPDEST PUSH1 0x2 DUP1 SLOAD PUSH1 0x1 PUSH1 0x1 PUSH1 0xA0 SHL SUB NOT AND PUSH1 0x1 PUSH1 0x1 PUSH1 0xA0 SHL SUB SWAP3 SWAP1 SWAP3 AND SWAP2 SWAP1 SWAP2 OR SWAP1 SSTORE JUMP JUMPDEST PUSH2 0x4C0 PUSH2 0x90F JUMP JUMPDEST PUSH2 0x4CA PUSH1 0x0 PUSH2 0x955 JUMP JUMPDEST JUMP JUMPDEST CALLER PUSH1 0x0 SWAP1 DUP2 MSTORE PUSH1 0x3 PUSH1 0x20 MSTORE PUSH1 0x40 SWAP1 KECCAK256 PUSH1 0x1 ADD DUP1 SLOAD PUSH2 0x4E9 SWAP1 PUSH2 0xC09 JUMP JUMPDEST ISZERO SWAP1 POP PUSH2 0x538 JUMPI PUSH1 0x40 MLOAD PUSH3 0x461BCD PUSH1 0xE5 SHL DUP2 MSTORE PUSH1 0x20 PUSH1 0x4 DUP3 ADD MSTORE PUSH1 0x12 PUSH1 0x24 DUP3 ADD MSTORE PUSH32 0x416C726561647920726567697374657265640000000000000000000000000000 PUSH1 0x44 DUP3 ADD MSTORE PUSH1 0x64 ADD PUSH2 0x2FC JUMP JUMPDEST PUSH1 0x40 DUP1 MLOAD PUSH1 0x80 DUP2 ADD DUP3 MSTORE CALLER DUP1 DUP3 MSTORE PUSH1 0x20 DUP1 DUP4 ADD DUP6 DUP2 MSTORE PUSH1 0x0 DUP5 DUP7 ADD DUP2 SWAP1 MSTORE PUSH1 0x60 DUP6 ADD DUP2 SWAP1 MSTORE SWAP3 DUP4 MSTORE PUSH1 0x3 SWAP1 SWAP2 MSTORE SWAP3 SWAP1 KECCAK256 DUP2 MLOAD DUP2 SLOAD PUSH1 0x1 PUSH1 0x1 PUSH1 0xA0 SHL SUB NOT AND PUSH1 0x1 PUSH1 0x1 PUSH1 0xA0 SHL SUB SWAP1 SWAP2 AND OR DUP2 SSTORE SWAP2 MLOAD SWAP1 SWAP2 SWAP1 PUSH1 0x1 DUP3 ADD SWAP1 PUSH2 0x598 SWAP1 DUP3 PUSH2 0xC94 JUMP JUMPDEST POP PUSH1 0x40 DUP3 DUP2 ADD MLOAD PUSH1 0x2 DUP4 ADD SSTORE PUSH1 0x60 SWAP1 SWAP3 ADD MLOAD PUSH1 0x3 SWAP1 SWAP2 ADD SSTORE MLOAD CALLER SWAP1 PUSH32 0x81EF79D1CDA814A60C0FC60792E648A06D9C6BAE67176346D1CC8B63030BFCCD SWAP1 PUSH2 0x5E0 SWAP1 DUP5 SWAP1 PUSH2 0xD54 JUMP JUMPDEST PUSH1 0x40 MLOAD DUP1 SWAP2 SUB SWAP1 LOG2 POP JUMP JUMPDEST PUSH1 0x0 DUP2 DUP2 MSTORE PUSH1 0x4 PUSH1 0x20 MSTORE PUSH1 0x40 SWAP1 KECCAK256 PUSH1 0x1 DUP2 SLOAD PUSH1 0xFF AND PUSH1 0x2 DUP2 GT ISZERO PUSH2 0x611 JUMPI PUSH2 0x611 PUSH2 0x9F9 JUMP JUMPDEST EQ PUSH2 0x65E JUMPI PUSH1 0x40 MLOAD PUSH3 0x461BCD PUSH1 0xE5 SHL DUP2 MSTORE PUSH1 0x20 PUSH1 0x4 DUP3 ADD MSTORE PUSH1 0x16 PUSH1 0x24 DUP3 ADD MSTORE PUSH32 0x426174746C65206E6F7420696E2070726F677265737300000000000000000000 PUSH1 0x44 DUP3 ADD MSTORE PUSH1 0x64 ADD PUSH2 0x2FC JUMP JUMPDEST PUSH1 0x2 DUP2 ADD SLOAD PUSH1 0x1 PUSH1 0x1 PUSH1 0xA0 SHL SUB AND CALLER EQ DUP1 PUSH2 0x683 JUMPI POP PUSH1 0x0 SLOAD PUSH1 0x1 PUSH1 0x1 PUSH1 0xA0 SHL SUB AND CALLER EQ JUMPDEST PUSH2 0x6CF JUMPI PUSH1 0x40 MLOAD PUSH3 0x461BCD PUSH1 0xE5 SHL DUP2 MSTORE PUSH1 0x20 PUSH1 0x4 DUP3 ADD MSTORE PUSH1 0x19 PUSH1 0x24 DUP3 ADD MSTORE PUSH32 0x4E6F7420617574686F72697A656420746F207265736F6C766500000000000000 PUSH1 0x44 DUP3 ADD MSTORE PUSH1 0x64 ADD PUSH2 0x2FC JUMP JUMPDEST DUP1 PUSH1 0x6 ADD SLOAD DUP2 PUSH1 0x5 ADD SLOAD LT ISZERO PUSH2 0x6F0 JUMPI PUSH1 0x2 SLOAD PUSH1 0x1 PUSH1 0x1 PUSH1 0xA0 SHL SUB AND PUSH2 0x6FF JUMP JUMPDEST PUSH1 0x2 DUP2 ADD SLOAD PUSH1 0x1 PUSH1 0x1 PUSH1 0xA0 SHL SUB AND JUMPDEST PUSH1 0x7 DUP3 ADD DUP1 SLOAD PUSH1 0x1 PUSH1 0x1 PUSH1 0xA0 SHL SUB SWAP3 DUP4 AND PUSH1 0x1 PUSH1 0x1 PUSH1 0xA0 SHL SUB NOT SWAP1 SWAP2 AND DUP2 OR SWAP1 SWAP2 SSTORE DUP3 SLOAD PUSH1 0xFF NOT AND PUSH1 0x2 SWAP1 DUP2 OR DUP5 SSTORE DUP4 ADD SLOAD SWAP1 SWAP2 AND PUSH1 0x0 DUP2 DUP2 MSTORE PUSH1 0x3 PUSH1 0x20 MSTORE PUSH1 0x40 SWAP1 KECCAK256 SWAP2 SUB PUSH2 0x764 JUMPI PUSH1 0x2 DUP2 ADD DUP1 SLOAD SWAP1 PUSH1 0x0 PUSH2 0x75A DUP4 PUSH2 0xD67 JUMP JUMPDEST SWAP2 SWAP1 POP SSTORE POP PUSH2 0x77C JUMP JUMPDEST PUSH1 0x3 DUP2 ADD DUP1 SLOAD SWAP1 PUSH1 0x0 PUSH2 0x776 DUP4 PUSH2 0xD67 JUMP JUMPDEST SWAP2 SWAP1 POP SSTORE POP JUMPDEST PUSH1 0x2 DUP3 ADD SLOAD PUSH1 0x7 DUP4 ADD SLOAD PUSH1 0x1 PUSH1 0x1 PUSH1 0xA0 SHL SUB SWAP1 DUP2 AND SWAP2 AND EQ PUSH2 0x7AB JUMPI PUSH1 0x2 DUP3 ADD SLOAD PUSH1 0x1 PUSH1 0x1 PUSH1 0xA0 SHL SUB AND PUSH2 0x7B8 JUMP JUMPDEST PUSH1 0x2 SLOAD PUSH1 0x1 PUSH1 0x1 PUSH1 0xA0 SHL SUB AND JUMPDEST PUSH1 0x7 DUP4 ADD SLOAD PUSH1 0x40 MLOAD PUSH1 0x1 PUSH1 0x1 PUSH1 0xA0 SHL SUB SWAP3 DUP4 AND SWAP3 SWAP1 SWAP2 AND SWAP1 DUP6 SWAP1 PUSH32 0xC77DC6CD4B51C8EFC4AF40A582CA4CF229FDA505A830B4486B200DDCBDB1383F SWAP1 PUSH1 0x0 SWAP1 LOG4 POP POP POP JUMP JUMPDEST PUSH1 0x3 PUSH1 0x20 MSTORE PUSH1 0x0 SWAP1 DUP2 MSTORE PUSH1 0x40 SWAP1 KECCAK256 DUP1 SLOAD PUSH1 0x1 DUP3 ADD DUP1 SLOAD PUSH1 0x1 PUSH1 0x1 PUSH1 0xA0 SHL SUB SWAP1 SWAP3 AND SWAP3 SWAP2 PUSH2 0x829 SWAP1 PUSH2 0xC09 JUMP JUMPDEST DUP1 PUSH1 0x1F ADD PUSH1 0x20 DUP1 SWAP2 DIV MUL PUSH1 0x20 ADD PUSH1 0x40 MLOAD SWAP1 DUP2 ADD PUSH1 0x40 MSTORE DUP1 SWAP3 SWAP2 SWAP1 DUP2 DUP2 MSTORE PUSH1 0x20 ADD DUP3 DUP1 SLOAD PUSH2 0x855 SWAP1 PUSH2 0xC09 JUMP JUMPDEST DUP1 ISZERO PUSH2 0x8A2 JUMPI DUP1 PUSH1 0x1F LT PUSH2 0x877 JUMPI PUSH2 0x100 DUP1 DUP4 SLOAD DIV MUL DUP4 MSTORE SWAP2 PUSH1 0x20 ADD SWAP2 PUSH2 0x8A2 JUMP JUMPDEST DUP3 ADD SWAP2 SWAP1 PUSH1 0x0 MSTORE PUSH1 0x20 PUSH1 0x0 KECCAK256 SWAP1 JUMPDEST DUP2 SLOAD DUP2 MSTORE SWAP1 PUSH1 0x1 ADD SWAP1 PUSH1 0x20 ADD DUP1 DUP4 GT PUSH2 0x885 JUMPI DUP3 SWAP1 SUB PUSH1 0x1F AND DUP3 ADD SWAP2 JUMPDEST POP POP POP POP POP SWAP1 DUP1 PUSH1 0x2 ADD SLOAD SWAP1 DUP1 PUSH1 0x3 ADD SLOAD SWAP1 POP DUP5 JUMP JUMPDEST PUSH2 0x8C0 PUSH2 0x90F JUMP JUMPDEST PUSH1 0x1 PUSH1 0x1 PUSH1 0xA0 SHL SUB DUP2 AND PUSH2 0x903 JUMPI PUSH1 0x40 MLOAD PUSH32 0x1E4FBDF700000000000000000000000000000000000000000000000000000000 DUP2 MSTORE PUSH1 0x0 PUSH1 0x4 DUP3 ADD MSTORE PUSH1 0x24 ADD PUSH2 0x2FC JUMP JUMPDEST PUSH2 0x90C DUP2 PUSH2 0x955 JUMP JUMPDEST POP JUMP JUMPDEST PUSH1 0x0 SLOAD PUSH1 0x1 PUSH1 0x1 PUSH1 0xA0 SHL SUB AND CALLER EQ PUSH2 0x4CA JUMPI PUSH1 0x40 MLOAD PUSH32 0x118CDAA700000000000000000000000000000000000000000000000000000000 DUP2 MSTORE CALLER PUSH1 0x4 DUP3 ADD MSTORE PUSH1 0x24 ADD PUSH2 0x2FC JUMP JUMPDEST PUSH1 0x0 DUP1 SLOAD PUSH1 0x1 PUSH1 0x1 PUSH1 0xA0 SHL SUB DUP4 DUP2 AND PUSH1 0x1 PUSH1 0x1 PUSH1 0xA0 SHL SUB NOT DUP4 AND DUP2 OR DUP5 SSTORE PUSH1 0x40 MLOAD SWAP2 SWAP1 SWAP3 AND SWAP3 DUP4 SWAP2 PUSH32 0x8BE0079C531659141344CD1FD0A4F28419497F9722A3DAAFE3B4186F6B6457E0 SWAP2 SWAP1 LOG3 POP POP JUMP JUMPDEST PUSH1 0x0 DUP1 PUSH1 0x0 DUP1 PUSH1 0x0 PUSH1 0xA0 DUP7 DUP9 SUB SLT ISZERO PUSH2 0x9BD JUMPI PUSH1 0x0 DUP1 REVERT JUMPDEST POP POP DUP4 CALLDATALOAD SWAP6 PUSH1 0x20 DUP6 ADD CALLDATALOAD SWAP6 POP PUSH1 0x40 DUP6 ADD CALLDATALOAD SWAP5 PUSH1 0x60 DUP2 ADD CALLDATALOAD SWAP5 POP PUSH1 0x80 ADD CALLDATALOAD SWAP3 POP SWAP1 POP JUMP JUMPDEST PUSH1 0x0 PUSH1 0x20 DUP3 DUP5 SUB SLT ISZERO PUSH2 0x9F2 JUMPI PUSH1 0x0 DUP1 REVERT JUMPDEST POP CALLDATALOAD SWAP2 SWAP1 POP JUMP JUMPDEST PUSH4 0x4E487B71 PUSH1 0xE0 SHL PUSH1 0x0 MSTORE PUSH1 0x21 PUSH1 0x4 MSTORE PUSH1 0x24 PUSH1 0x0 REVERT JUMPDEST PUSH2 0x100 DUP2 ADD PUSH1 0x3 DUP11 LT PUSH2 0xA32 JUMPI PUSH4 0x4E487B71 PUSH1 0xE0 SHL PUSH1 0x0 MSTORE PUSH1 0x21 PUSH1 0x4 MSTORE PUSH1 0x24 PUSH1 0x0 REVERT JUMPDEST SWAP9 DUP2 MSTORE PUSH1 0x20 DUP2 ADD SWAP8 SWAP1 SWAP8 MSTORE PUSH1 0x1 PUSH1 0x1 PUSH1 0xA0 SHL SUB SWAP6 DUP7 AND PUSH1 0x40 DUP9 ADD MSTORE PUSH1 0x60 DUP8 ADD SWAP5 SWAP1 SWAP5 MSTORE PUSH1 0x80 DUP7 ADD SWAP3 SWAP1 SWAP3 MSTORE PUSH1 0xA0 DUP6 ADD MSTORE PUSH1 0xC0 DUP5 ADD MSTORE AND PUSH1 0xE0 SWAP1 SWAP2 ADD MSTORE SWAP1 JUMP JUMPDEST PUSH1 0x1 PUSH1 0x1 PUSH1 0xA0 SHL SUB DUP2 AND DUP2 EQ PUSH2 0x90C JUMPI PUSH1 0x0 DUP1 REVERT JUMPDEST PUSH1 0x0 PUSH1 0x20 DUP3 DUP5 SUB SLT ISZERO PUSH2 0xA98 JUMPI PUSH1 0x0 DUP1 REVERT JUMPDEST DUP2 CALLDATALOAD PUSH2 0xAA3 DUP2 PUSH2 0xA71 JUMP JUMPDEST SWAP4 SWAP3 POP POP POP JUMP JUMPDEST PUSH4 0x4E487B71 PUSH1 0xE0 SHL PUSH1 0x0 MSTORE PUSH1 0x41 PUSH1 0x4 MSTORE PUSH1 0x24 PUSH1 0x0 REVERT JUMPDEST PUSH1 0x0 PUSH1 0x20 DUP3 DUP5 SUB SLT ISZERO PUSH2 0xAD2 JUMPI PUSH1 0x0 DUP1 REVERT JUMPDEST DUP2 CALLDATALOAD PUSH8 0xFFFFFFFFFFFFFFFF DUP1 DUP3 GT ISZERO PUSH2 0xAEA JUMPI PUSH1 0x0 DUP1 REVERT JUMPDEST DUP2 DUP5 ADD SWAP2 POP DUP5 PUSH1 0x1F DUP4 ADD SLT PUSH2 0xAFE JUMPI PUSH1 0x0 DUP1 REVERT JUMPDEST DUP2 CALLDATALOAD DUP2 DUP2 GT ISZERO PUSH2 0xB10 JUMPI PUSH2 0xB10 PUSH2 0xAAA JUMP JUMPDEST PUSH1 0x40 MLOAD PUSH1 0x1F DUP3 ADD PUSH1 0x1F NOT SWAP1 DUP2 AND PUSH1 0x3F ADD AND DUP2 ADD SWAP1 DUP4 DUP3 GT DUP2 DUP4 LT OR ISZERO PUSH2 0xB38 JUMPI PUSH2 0xB38 PUSH2 0xAAA JUMP JUMPDEST DUP2 PUSH1 0x40 MSTORE DUP3 DUP2 MSTORE DUP8 PUSH1 0x20 DUP5 DUP8 ADD ADD GT ISZERO PUSH2 0xB51 JUMPI PUSH1 0x0 DUP1 REVERT JUMPDEST DUP3 PUSH1 0x20 DUP7 ADD PUSH1 0x20 DUP4 ADD CALLDATACOPY PUSH1 0x0 SWAP3 DUP2 ADD PUSH1 0x20 ADD SWAP3 SWAP1 SWAP3 MSTORE POP SWAP6 SWAP5 POP POP POP POP POP JUMP JUMPDEST PUSH1 0x0 DUP2 MLOAD DUP1 DUP5 MSTORE PUSH1 0x0 JUMPDEST DUP2 DUP2 LT ISZERO PUSH2 0xB97 JUMPI PUSH1 0x20 DUP2 DUP6 ADD DUP2 ADD MLOAD DUP7 DUP4 ADD DUP3 ADD MSTORE ADD PUSH2 0xB7B JUMP JUMPDEST POP PUSH1 0x0 PUSH1 0x20 DUP3 DUP7 ADD ADD MSTORE PUSH1 0x20 PUSH1 0x1F NOT PUSH1 0x1F DUP4 ADD AND DUP6 ADD ADD SWAP2 POP POP SWAP3 SWAP2 POP POP JUMP JUMPDEST PUSH1 0x1 PUSH1 0x1 PUSH1 0xA0 SHL SUB DUP6 AND DUP2 MSTORE PUSH1 0x80 PUSH1 0x20 DUP3 ADD MSTORE PUSH1 0x0 PUSH2 0xBD9 PUSH1 0x80 DUP4 ADD DUP7 PUSH2 0xB71 JUMP JUMPDEST PUSH1 0x40 DUP4 ADD SWAP5 SWAP1 SWAP5 MSTORE POP PUSH1 0x60 ADD MSTORE SWAP3 SWAP2 POP POP JUMP JUMPDEST PUSH1 0x0 PUSH1 0x20 DUP3 DUP5 SUB SLT ISZERO PUSH2 0xBFE JUMPI PUSH1 0x0 DUP1 REVERT JUMPDEST DUP2 MLOAD PUSH2 0xAA3 DUP2 PUSH2 0xA71 JUMP JUMPDEST PUSH1 0x1 DUP2 DUP2 SHR SWAP1 DUP3 AND DUP1 PUSH2 0xC1D JUMPI PUSH1 0x7F DUP3 AND SWAP2 POP JUMPDEST PUSH1 0x20 DUP3 LT DUP2 SUB PUSH2 0xC3D JUMPI PUSH4 0x4E487B71 PUSH1 0xE0 SHL PUSH1 0x0 MSTORE PUSH1 0x22 PUSH1 0x4 MSTORE PUSH1 0x24 PUSH1 0x0 REVERT JUMPDEST POP SWAP2 SWAP1 POP JUMP JUMPDEST PUSH1 0x1F DUP3 GT ISZERO PUSH2 0xC8F JUMPI PUSH1 0x0 DUP2 PUSH1 0x0 MSTORE PUSH1 0x20 PUSH1 0x0 KECCAK256 PUSH1 0x1F DUP6 ADD PUSH1 0x5 SHR DUP2 ADD PUSH1 0x20 DUP7 LT ISZERO PUSH2 0xC6C JUMPI POP DUP1 JUMPDEST PUSH1 0x1F DUP6 ADD PUSH1 0x5 SHR DUP3 ADD SWAP2 POP JUMPDEST DUP2 DUP2 LT ISZERO PUSH2 0xC8B JUMPI DUP3 DUP2 SSTORE PUSH1 0x1 ADD PUSH2 0xC78 JUMP JUMPDEST POP POP POP JUMPDEST POP POP POP JUMP JUMPDEST DUP2 MLOAD PUSH8 0xFFFFFFFFFFFFFFFF DUP2 GT ISZERO PUSH2 0xCAE JUMPI PUSH2 0xCAE PUSH2 0xAAA JUMP JUMPDEST PUSH2 0xCC2 DUP2 PUSH2 0xCBC DUP5 SLOAD PUSH2 0xC09 JUMP JUMPDEST DUP5 PUSH2 0xC43 JUMP JUMPDEST PUSH1 0x20 DUP1 PUSH1 0x1F DUP4 GT PUSH1 0x1 DUP2 EQ PUSH2 0xCF7 JUMPI PUSH1 0x0 DUP5 ISZERO PUSH2 0xCDF JUMPI POP DUP6 DUP4 ADD MLOAD JUMPDEST PUSH1 0x0 NOT PUSH1 0x3 DUP7 SWAP1 SHL SHR NOT AND PUSH1 0x1 DUP6 SWAP1 SHL OR DUP6 SSTORE PUSH2 0xC8B JUMP JUMPDEST PUSH1 0x0 DUP6 DUP2 MSTORE PUSH1 0x20 DUP2 KECCAK256 PUSH1 0x1F NOT DUP7 AND SWAP2 JUMPDEST DUP3 DUP2 LT ISZERO PUSH2 0xD26 JUMPI DUP9 DUP7 ADD MLOAD DUP3 SSTORE SWAP5 DUP5 ADD SWAP5 PUSH1 0x1 SWAP1 SWAP2 ADD SWAP1 DUP5 ADD PUSH2 0xD07 JUMP JUMPDEST POP DUP6 DUP3 LT ISZERO PUSH2 0xD44 JUMPI DUP8 DUP6 ADD MLOAD PUSH1 0x0 NOT PUSH1 0x3 DUP9 SWAP1 SHL PUSH1 0xF8 AND SHR NOT AND DUP2 SSTORE JUMPDEST POP POP POP POP POP PUSH1 0x1 SWAP1 DUP2 SHL ADD SWAP1 SSTORE POP JUMP JUMPDEST PUSH1 0x20 DUP2 MSTORE PUSH1 0x0 PUSH2 0xAA3 PUSH1 0x20 DUP4 ADD DUP5 PUSH2 0xB71 JUMP JUMPDEST PUSH1 0x0 PUSH1 0x1 DUP3 ADD PUSH2 0xD87 JUMPI PUSH4 0x4E487B71 PUSH1 0xE0 SHL PUSH1 0x0 MSTORE PUSH1 0x11 PUSH1 0x4 MSTORE PUSH1 0x24 PUSH1 0x0 REVERT JUMPDEST POP PUSH1 0x1 ADD SWAP1 JUMP INVALID LOG2 PUSH5 0x6970667358 0x22 SLT KECCAK256 0xBA 0xCF JUMPI 0xBA AND 0xEA 0xB5 0xEF 0xC5 0xE PUSH10 0x67589A7AF64EA1C3F384 0xAD 0xD7 ADDMOD PUSH31 0xD6BD174D089C5564736F6C6343000818003300000000000000000000000000 "},"methodIdentifiers":{"battles(uint256)":"606d2e96","cardContract()":"693bd2d0","computerAddress()":"3a7c2b71","createBattle(uint256,uint256,uint256,uint256,uint256)":"255c9e6f","owner()":"8da5cb5b","players(address)":"e2eb41ff","registerPlayer(string)":"b3446f85","renounceOwnership()":"715018a6","resolveBattle(uint256)":"d93705a5","transferOwnership(address)":"f2fde38b","updateComputerAddress(address)":"7016f931"}}}}}