{
  "_format": "hh-sol-artifact-1",
  "contractName": "TradingCardGame",
  "sourceName": "contracts/CardGame.sol",
  "abi": [
    {
      "inputs": [
        {
          "internalType": "address",
          "name": "_cardContractAddress",
          "type": "address"
        },
        {
          "internalType": "address",
          "name": "_computerAddress",
          "type": "address"
        }
      ],
      "stateMutability": "nonpayable",
      "type": "constructor"
    },
    {
      "inputs": [
        {
          "internalType": "address",
          "name": "owner",
          "type": "address"
        }
      ],
      "name": "OwnableInvalidOwner",
      "type": "error"
    },
    {
      "inputs": [
        {
          "internalType": "address",
          "name": "account",
          "type": "address"
        }
      ],
      "name": "OwnableUnauthorizedAccount",
      "type": "error"
    },
    {
      "anonymous": false,
      "inputs": [
        {
          "indexed": true,
          "internalType": "uint256",
          "name": "battleId",
          "type": "uint256"
        },
        {
          "indexed": true,
          "internalType": "address",
          "name": "winner",
          "type": "address"
        },
        {
          "indexed": true,
          "internalType": "address",
          "name": "loser",
          "type": "address"
        }
      ],
      "name": "BattleFinished",
      "type": "event"
    },
    {
      "anonymous": false,
      "inputs": [
        {
          "indexed": true,
          "internalType": "uint256",
          "name": "battleId",
          "type": "uint256"
        },
        {
          "indexed": true,
          "internalType": "address",
          "name": "player",
          "type": "address"
        },
        {
          "indexed": false,
          "internalType": "uint256",
          "name": "playerCardId",
          "type": "uint256"
        },
        {
          "indexed": false,
          "internalType": "uint256",
          "name": "computerCardId",
          "type": "uint256"
        }
      ],
      "name": "BattleStarted",
      "type": "event"
    },
    {
      "anonymous": false,
      "inputs": [
        {
          "indexed": true,
          "internalType": "address",
          "name": "player",
          "type": "address"
        },
        {
          "indexed": false,
          "internalType": "string",
          "name": "name",
          "type": "string"
        }
      ],
      "name": "NewPlayer",
      "type": "event"
    },
    {
      "anonymous": false,
      "inputs": [
        {
          "indexed": true,
          "internalType": "address",
          "name": "previousOwner",
          "type": "address"
        },
        {
          "indexed": true,
          "internalType": "address",
          "name": "newOwner",
          "type": "address"
        }
      ],
      "name": "OwnershipTransferred",
      "type": "event"
    },
    {
      "inputs": [
        {
          "internalType": "uint256",
          "name": "",
          "type": "uint256"
        }
      ],
      "name": "battles",
      "outputs": [
        {
          "internalType": "enum TradingCardGame.BattleStatus",
          "name": "battleStatus",
          "type": "uint8"
        },
        {
          "internalType": "uint256",
          "name": "battleId",
          "type": "uint256"
        },
        {
          "internalType": "address",
          "name": "player",
          "type": "address"
        },
        {
          "internalType": "uint256",
          "name": "playerCardId",
          "type": "uint256"
        },
        {
          "internalType": "uint256",
          "name": "computerCardId",
          "type": "uint256"
        },
        {
          "internalType": "uint256",
          "name": "playerStatValue",
          "type": "uint256"
        },
        {
          "internalType": "uint256",
          "name": "computerStatValue",
          "type": "uint256"
        },
        {
          "internalType": "address",
          "name": "winner",
          "type": "address"
        }
      ],
      "stateMutability": "view",
      "type": "function"
    },
    {
      "inputs": [],
      "name": "cardContract",
      "outputs": [
        {
          "internalType": "contract IERC721",
          "name": "",
          "type": "address"
        }
      ],
      "stateMutability": "view",
      "type": "function"
    },
    {
      "inputs": [],
      "name": "computerAddress",
      "outputs": [
        {
          "internalType": "address",
          "name": "",
          "type": "address"
        }
      ],
      "stateMutability": "view",
      "type": "function"
    },
    {
      "inputs": [
        {
          "internalType": "uint256",
          "name": "_battleId",
          "type": "uint256"
        },
        {
          "internalType": "uint256",
          "name": "_playerCardId",
          "type": "uint256"
        },
        {
          "internalType": "uint256",
          "name": "_computerCardId",
          "type": "uint256"
        },
        {
          "internalType": "uint256",
          "name": "_playerStatValue",
          "type": "uint256"
        },
        {
          "internalType": "uint256",
          "name": "_computerStatValue",
          "type": "uint256"
        }
      ],
      "name": "createBattle",
      "outputs": [],
      "stateMutability": "nonpayable",
      "type": "function"
    },
    {
      "inputs": [],
      "name": "owner",
      "outputs": [
        {
          "internalType": "address",
          "name": "",
          "type": "address"
        }
      ],
      "stateMutability": "view",
      "type": "function"
    },
    {
      "inputs": [
        {
          "internalType": "address",
          "name": "",
          "type": "address"
        }
      ],
      "name": "players",
      "outputs": [
        {
          "internalType": "address",
          "name": "playerAddress",
          "type": "address"
        },
        {
          "internalType": "string",
          "name": "playerName",
          "type": "string"
        },
        {
          "internalType": "uint256",
          "name": "wins",
          "type": "uint256"
        },
        {
          "internalType": "uint256",
          "name": "losses",
          "type": "uint256"
        }
      ],
      "stateMutability": "view",
      "type": "function"
    },
    {
      "inputs": [
        {
          "internalType": "string",
          "name": "_name",
          "type": "string"
        }
      ],
      "name": "registerPlayer",
      "outputs": [],
      "stateMutability": "nonpayable",
      "type": "function"
    },
    {
      "inputs": [],
      "name": "renounceOwnership",
      "outputs": [],
      "stateMutability": "nonpayable",
      "type": "function"
    },
    {
      "inputs": [
        {
          "internalType": "uint256",
          "name": "_battleId",
          "type": "uint256"
        }
      ],
      "name": "resolveBattle",
      "outputs": [],
      "stateMutability": "nonpayable",
      "type": "function"
    },
    {
      "inputs": [
        {
          "internalType": "address",
          "name": "newOwner",
          "type": "address"
        }
      ],
      "name": "transferOwnership",
      "outputs": [],
      "stateMutability": "nonpayable",
      "type": "function"
    },
    {
      "inputs": [
        {
          "internalType": "address",
          "name": "_newAddress",
          "type": "address"
        }
      ],
      "name": "updateComputerAddress",
      "outputs": [],
      "stateMutability": "nonpayable",
      "type": "function"
    }
  ],
  "bytecode": "0x608060405234801561001057600080fd5b50604051610f02380380610f0283398101604081905261002f916100fc565b338061005557604051631e4fbdf760e01b81526000600482015260240160405180910390fd5b61005e81610090565b50600180546001600160a01b039384166001600160a01b0319918216179091556002805492909316911617905561012f565b600080546001600160a01b038381166001600160a01b0319831681178455604051919092169283917f8be0079c531659141344cd1fd0a4f28419497f9722a3daafe3b4186f6b6457e09190a35050565b80516001600160a01b03811681146100f757600080fd5b919050565b6000806040838503121561010f57600080fd5b610118836100e0565b9150610126602084016100e0565b90509250929050565b610dc48061013e6000396000f3fe608060405234801561001057600080fd5b50600436106100c95760003560e01c8063715018a611610081578063d93705a51161005b578063d93705a5146101db578063e2eb41ff146101ee578063f2fde38b1461021157600080fd5b8063715018a6146101af5780638da5cb5b146101b7578063b3446f85146101c857600080fd5b8063606d2e96116100b2578063606d2e9614610113578063693bd2d0146101895780637016f9311461019c57600080fd5b8063255c9e6f146100ce5780633a7c2b71146100e3575b600080fd5b6100e16100dc3660046109a5565b610224565b005b6002546100f6906001600160a01b031681565b6040516001600160a01b0390911681526020015b60405180910390f35b6101756101213660046109e0565b60046020819052600091825260409091208054600182015460028301546003840154948401546005850154600686015460079096015460ff9095169693956001600160a01b03938416959293919290911688565b60405161010a989796959493929190610a0f565b6001546100f6906001600160a01b031681565b6100e16101aa366004610a86565b61048e565b6100e16104b8565b6000546001600160a01b03166100f6565b6100e16101d6366004610ac0565b6104cc565b6100e16101e93660046109e0565b6105eb565b6102016101fc366004610a86565b6107fd565b60405161010a9493929190610bb7565b6100e161021f366004610a86565b6108b8565b6001546040517f6352211e0000000000000000000000000000000000000000000000000000000081526004810186905233916001600160a01b031690636352211e90602401602060405180830381865afa158015610286573d6000803e3d6000fd5b505050506040513d601f19601f820116820180604052508101906102aa9190610bec565b6001600160a01b0316146103055760405162461bcd60e51b815260206004820152601760248201527f596f7520646f6e2774206f776e2074686973206361726400000000000000000060448201526064015b60405180910390fd5b600085815260046020526040902060010154156103645760405162461bcd60e51b815260206004820152601860248201527f426174746c6520494420616c726561647920657869737473000000000000000060448201526064016102fc565b6040805161010081019091528060018152602080820188905233604080840191909152606083018890526080830187905260a0830186905260c08301859052600060e09093018390528883526004909152902081518154829060ff191660018360028111156103d5576103d56109f9565b021790555060208281015160018301556040808401516002840180546001600160a01b03199081166001600160a01b0393841617909155606086015160038601556080860151600486015560a0860151600586015560c0860151600686015560e090950151600790940180549095169316929092179092558051868152918201859052339187917f7b010b92649cab9c2407084cd3618bec17673efa5ac581cd215068a8558580dc910160405180910390a35050505050565b61049661090f565b600280546001600160a01b0319166001600160a01b0392909216919091179055565b6104c061090f565b6104ca6000610955565b565b33600090815260036020526040902060010180546104e990610c09565b1590506105385760405162461bcd60e51b815260206004820152601260248201527f416c72656164792072656769737465726564000000000000000000000000000060448201526064016102fc565b604080516080810182523380825260208083018581526000848601819052606085018190529283526003909152929020815181546001600160a01b0319166001600160a01b03909116178155915190919060018201906105989082610c94565b5060408281015160028301556060909201516003909101555133907f81ef79d1cda814a60c0fc60792e648a06d9c6bae67176346d1cc8b63030bfccd906105e0908490610d54565b60405180910390a250565b60008181526004602052604090206001815460ff166002811115610611576106116109f9565b1461065e5760405162461bcd60e51b815260206004820152601660248201527f426174746c65206e6f7420696e2070726f67726573730000000000000000000060448201526064016102fc565b60028101546001600160a01b031633148061068357506000546001600160a01b031633145b6106cf5760405162461bcd60e51b815260206004820152601960248201527f4e6f7420617574686f72697a656420746f207265736f6c76650000000000000060448201526064016102fc565b8060060154816005015410156106f0576002546001600160a01b03166106ff565b60028101546001600160a01b03165b6007820180546001600160a01b039283166001600160a01b03199091168117909155825460ff191660029081178455830154909116600081815260036020526040902091036107645760028101805490600061075a83610d67565b919050555061077c565b60038101805490600061077683610d67565b91905055505b600282015460078301546001600160a01b039081169116146107ab5760028201546001600160a01b03166107b8565b6002546001600160a01b03165b60078301546040516001600160a01b03928316929091169085907fc77dc6cd4b51c8efc4af40a582ca4cf229fda505a830b4486b200ddcbdb1383f90600090a4505050565b600360205260009081526040902080546001820180546001600160a01b03909216929161082990610c09565b80601f016020809104026020016040519081016040528092919081815260200182805461085590610c09565b80156108a25780601f10610877576101008083540402835291602001916108a2565b820191906000526020600020905b81548152906001019060200180831161088557829003601f168201915b5050505050908060020154908060030154905084565b6108c061090f565b6001600160a01b038116610903576040517f1e4fbdf7000000000000000000000000000000000000000000000000000000008152600060048201526024016102fc565b61090c81610955565b50565b6000546001600160a01b031633146104ca576040517f118cdaa70000000000000000000000000000000000000000000000000000000081523360048201526024016102fc565b600080546001600160a01b038381166001600160a01b0319831681178455604051919092169283917f8be0079c531659141344cd1fd0a4f28419497f9722a3daafe3b4186f6b6457e09190a35050565b600080600080600060a086880312156109bd57600080fd5b505083359560208501359550604085013594606081013594506080013592509050565b6000602082840312156109f257600080fd5b5035919050565b634e487b7160e01b600052602160045260246000fd5b610100810160038a10610a3257634e487b7160e01b600052602160045260246000fd5b98815260208101979097526001600160a01b0395861660408801526060870194909452608086019290925260a085015260c08401521660e09091015290565b6001600160a01b038116811461090c57600080fd5b600060208284031215610a9857600080fd5b8135610aa381610a71565b9392505050565b634e487b7160e01b600052604160045260246000fd5b600060208284031215610ad257600080fd5b813567ffffffffffffffff80821115610aea57600080fd5b818401915084601f830112610afe57600080fd5b813581811115610b1057610b10610aaa565b604051601f8201601f19908116603f01168101908382118183101715610b3857610b38610aaa565b81604052828152876020848701011115610b5157600080fd5b826020860160208301376000928101602001929092525095945050505050565b6000815180845260005b81811015610b9757602081850181015186830182015201610b7b565b506000602082860101526020601f19601f83011685010191505092915050565b6001600160a01b0385168152608060208201526000610bd96080830186610b71565b6040830194909452506060015292915050565b600060208284031215610bfe57600080fd5b8151610aa381610a71565b600181811c90821680610c1d57607f821691505b602082108103610c3d57634e487b7160e01b600052602260045260246000fd5b50919050565b601f821115610c8f576000816000526020600020601f850160051c81016020861015610c6c5750805b601f850160051c820191505b81811015610c8b57828155600101610c78565b5050505b505050565b815167ffffffffffffffff811115610cae57610cae610aaa565b610cc281610cbc8454610c09565b84610c43565b602080601f831160018114610cf75760008415610cdf5750858301515b600019600386901b1c1916600185901b178555610c8b565b600085815260208120601f198616915b82811015610d2657888601518255948401946001909101908401610d07565b5085821015610d445787850151600019600388901b60f8161c191681555b5050505050600190811b01905550565b602081526000610aa36020830184610b71565b600060018201610d8757634e487b7160e01b600052601160045260246000fd5b506001019056fea2646970667358221220bacf57ba16eab5efc50e6967589a7af64ea1c3f384add7087ed6bd174d089c5564736f6c63430008180033",
  "linkReferences": {},
  "deployedLinkReferences": {}
}